:020000040800F2
:100000000808002001070008DD040008DF040008DC
:10001000E3040008E7040008EB0400080000000007
:10002000000000000000000000000000EF040008D5
:10003000F104000800000000F3040008F5040008C3
:100040001B0700081B0700081B0700081B07000808
:100050001B0700081B0700081B0700081B070008F8
:100060001B0700081B0700081B0700081B070008E8
:100070001B0700081B0700081B0700081B070008D8
:100080001B0700081B0700081B0700081B070008C8
:100090001B0700081B0700081B0700081B070008B8
:1000A0001B0700081B0700081B0700081B070008A8
:1000B0001B0700081B0700081B0700081B07000898
:1000C0001B0700081B0700081B070008F7040008AF
:1000D0001B0700081B0700081B0700081B07000878
:1000E0001B0700081B0700081B0700081B07000868
:1000F0001B0700081B0700081B0700081B07000858
:100100001B0700081B0700081B0700081B07000847
:100110001B0700081B0700081B0700081B07000837
:100120001B0700081B0700081B0700081B07000827
:100130001B0700081B0700081B0700081B07000817
:100140001B0700081B0700081B0700081B07000807
:100150001B0700081B0700081B0700081B070008F7
:100160001B0700081B0700081B0700081B070008E7
:100170001B0700081B0700081B0700081B070008D7
:100180001B0700081B07000800F002F800F03CF80D
:100190000AA090E8000C82448344AAF10107DA45E2
:1001A00001D100F031F8AFF2090EBAE80F0013F0F8
:1001B000010F18BFFB1A43F001031847B0130000EA
:1001C000D0130000103A24BF78C878C1FAD852077B
:1001D00024BF30C830C144BF04680C6070470000C1
:1001E0000023002400250026103A28BF78C1FBD840
:1001F000520728BF30C148BF0B6070471FB501F0E0
:10020000B0F91FBD10B510BD01F072F91146FFF72E
:10021000F5FF00F008F801F090F903B4FFF7F2FFE2
:1002200003BC01F097F9A2B000F012F806E000F06C
:10023000AAF818B101A902A800F0A8F8F7E701B5DB
:1002400000BF0098411E00910028FAD108BD0000AF
:1002500000B589B000219C4800F0DDFF9A4800F00D
:10026000D1FE0121082000F08FFD0121080300F0DC
:10027000CFFDE020029002208DF80C008DF80D00DB
:1002800001208DF80E0000208DF80F0002A98F4884
:1002900000F034FB0020ADF81200ADF81C00ADF802
:1002A0001000ADF81400ADF81600ADF81800ADF868
:1002B0001E000720ADF8200004A9834800F0C8FE06
:1002C00023208DF8040001208DF8050000208DF812
:1002D000060001208DF8070001A800F036FA01227F
:1002E0007121794801F03FF80121774800F093FF30
:1002F00009B000BD70B506460D46002438E0681E02
:10030000C5B2002406E002216F4801F03CF800B1BC
:1003100004E0641C4CF250308442F4DB00BF3078BF
:100320006B4981F88400084690F88410664800F014
:10033000F3FF002406E08021634801F024F800B9AF
:1003400004E0641C4CF250308442F4DB00BF002413
:1003500006E001215C4801F016F800B104E0641CDD
:100360004CF250308442F4DB00BF574800F0D1FF1C
:10037000002DC4D170BD012056490870704700207F
:1003800054490870704753480078704770B5054667
:100390000C464F4890F88320011D284601F02EF8A6
:1003A0004B4890F883002070FFF7E9FF70BD10B54F
:1003B0004748C0780A2802DD0A204549C870444AE7
:1003C000D178527802EB4202434B03EB8200FFF7F5
:1003D00091FF10BD10B5FFF7CEFF10BD10B504465C
:1003E00014B9FFF7F7FF01E0FFF7E1FF10BD2DE9BA
:1003F000F0413548068887880589FF2405F001000B
:1004000018B1314800F085FFC4B2314800780528A2
:1004100054D2DFE800F0030F1F253400FF202C49E1
:1004200048700020C870012008700321264800F0A1
:10043000B3FF00BF264884708078012802D024488A
:10044000807818B902202249087002E00020204973
:10045000087034E01E48447003201D4908702EE0E7
:100460001B48C4708078012805D1FFF7B7FF002032
:100470001749087002E00420154908701FE014486D
:1004800090F8831090F88300401C114A82F8830092
:10049000101D4454001FC078114691F88310884203
:1004A00008D10020FFF79AFF0020094981F8830056
:1004B000087004E004200649087000E000BF00BF97
:1004C000FF24BDE8F0810000003001400000024040
:1004D000A00000207800002000000020704700BF2E
:1004E000FEE700BFFEE700BFFEE700BFFEE7704784
:1004F00070477047704710B5FFF779FF10BD0000D7
:100500000CB50020019000907248006840F48030E3
:100510007049086000BF6F48006800F40030009028
:100520000198401C0190009818B90198B0F5A06F8F
:10053000F1D16848006800F4003010B1012000904B
:1005400001E0002000900098012846D16148403029
:10055000006840F080505F49403108605E480068A4
:1005600040F480405C4908605A48083000685949A6
:10057000083108600846006840F4004008600846FA
:10058000006840F4A05008605448091F0860081F24
:10059000006840F08070091F086000BF4D48006887
:1005A00000F000700028F9D040F205604C49086066
:1005B00048480830006820F00300464908310860C8
:1005C0000846006840F00200086000BF414808305B
:1005D000006800F00C000828F8D10CBD10B53D48AB
:1005E000006840F001003B490860002039490831AB
:1005F0000860384800683B490840364908603A4876
:10060000091D0860081F006820F48020091F086089
:10061000002030490C310860FFF772FF4FF0006096
:100620003249086010BD70B500200022022300246A
:100630000221284D08352D6805F00C0020B1042852
:1006400006D0082834D107E0294D2A4E356033E022
:10065000294D284E35602FE01E4D2D1D2D68C5F308
:1006600080541C4D2D1D2D6805F03F0154B1224DC5
:10067000B5FBF1F5174E361D3668C6F3881605FB37
:1006800006F209E01A4DB5FBF1F5124E361D36683B
:10069000C6F3881605FB06F20E4D2D1D2D68C5F319
:1006A00001456D1C6B00B2FBF3F5124E356003E0A3
:1006B0000F4D104E356000BF00BF064D08352D6848
:1006C000C5F303150D4E705D0A4D2D68C540094EEA
:1006D000356070BD00380240007000400848400698
:1006E000003C0240FFFFF6FE1030002408ED00E061
:1006F0000024F4007C00002000127A00800000201A
:100700000948804709480047FEE7FEE7FEE7FEE7A5
:10071000FEE7FEE7FEE7FEE7FEE7FEE704480549E1
:10072000054A064B70470000DD05000889010008F6
:100730000802002008080020080400200804002007
:1007400032490143324A1160704770B500210023DD
:100750000F22C4781CB32E4C246804F4E064C4F562
:10076000E064C4F30721C1F10404E3B20A41447810
:100770009C40E1B28478144021430C07210E254CA3
:1007800005786155047804F01F050124AC40057814
:100790006D11AD0005F1E025C5F8004109E00478D0
:1007A00004F01F050124AC401B4D0678761145F876
:1007B000264070BD194A0A400243154B1B1F1A60A0
:1007C000704739B1124A121D12680243104B1B1DAB
:1007D0001A6006E00E4A121D126882430C4B1B1D64
:1007E0001A607047042808D14FF0E021096941F0F0
:1007F00004014FF0E022116107E04FF0E0210969A8
:1008000021F004014FF0E022116170470000FA0569
:100810000CED00E000E400E080E100E080FFFF1F5D
:1008200010B504468C48844208D10121084600F0E6
:1008300000FB0021012000F0FCFA5EE087488442C2
:1008400008D10121022000F0F4FA0021022000F07A
:10085000F0FA52E08248844208D10121042000F0DD
:10086000E8FA0021042000F0E4FA46E07D488442E2
:1008700008D10121082000F0DCFA0021082000F056
:10088000D8FA3AE07848844208D10121102000F0DB
:10089000D0FA0021102000F0CCFA2EE073488442F8
:1008A00008D10121202000F0C4FA0021202000F00E
:1008B000C0FA22E06E48844208D10121402000F0B5
:1008C000B8FA0021402000F0B4FA16E069488442EA
:1008D00008D10121802000F0ACFA0021802000F036
:1008E000A8FA0AE06448844207D10121801500F08B
:1008F000A0FA0021A01500F09CFA10BDF0B50A4640
:1009000000210023002400BF3DE0012505FA01F38A
:10091000156805EA03049C4234D105684F0003269C
:10092000BE40B543056015794E00B54006683543B5
:1009300005601579012D02D01579022D16D1856833
:100940004F000326BE40B543856055794E00B54043
:10095000866835438560456801268E40B54345600D
:10096000456896798E40B6B235434560C5684F00FC
:100970000326BE40B543C560D5794E00B540C66874
:100980003543C560491C1029BFD3F0BD4FF6FF7138
:1009900001600021017141718171C171704708B519
:1009A0004FF480320092009A0A430092009AC2618A
:1009B000C161009AC261C2690092C269009208BD19
:1009C0000246002013690B400BB1012000E000201B
:1009D00070470146086980B270470246002053699B
:1009E0000B400BB1012000E0002070470146486930
:1009F00080B2704701837047418370470AB1018319
:100A000000E0418370474161704742694A4042615A
:100A10007047F0B5002300244D07ED0E02FA05F3F0
:100A2000CE1000F1200555F826504E07F70E0F2680
:100A3000BE40B543CF1000F1200646F82750CE1037
:100A400000F1200555F8265045EA0304CE1000F1C8
:100A5000200545F82640F0BD000002400004024099
:100A600000080240000C0240001002400014024046
:100A700000180240001C024000200240FA480068B2
:100A800040F00100F84908600020F749083108608B
:100A9000F5480068F5490840F3490860F448091D25
:100AA0000860081F006820F48020091F08600020EB
:100AB000ED490C31086070470021EB4A921C11701F
:100AC00011460870704710B501460022002300202F
:100AD0004A11012A02D1E44C236808E0022A03D11A
:100AE000E14C7034236802E0DF4C7434236801F079
:100AF0001F02012494401C400CB1012000E00020A2
:100B000010BD38B5002000900024002500BF312022
:100B1000FFF7D9FF05460098401C00900098B0F5FB
:100B2000A06F01D0002DF2D03120FFF7CCFF08B12B
:100B3000012400E00024204638BD01460020CA4AB6
:100B4000106820F0F80040EAC10010607047C94901
:100B5000086070470021C44A70321170117001287A
:100B600002D004280AD104E00121BF4A703211707A
:100B700005E00521BC4A7032117000E000BF00BFE3
:100B80007047BD490860704770B5049C41EA821502
:100B90000126C6EB530645EA0645054345EA0465CA
:100BA000B14E361D356070BDB2490866704782018E
:100BB00042EA0172AC4B84331A607047AD498866D3
:100BC0007047AC49C864704702460020A64B083302
:100BD000186820F0EC6042EA01031843A24B083386
:100BE00018607047024600209F4B0833186820F0B9
:100BF000784042EA010318439B4B08331860704762
:100C000001460020984A0832106820F0030008438B
:100C10001060704794480830006800F00C0070477E
:100C200001460020904A0832106820F0F000084386
:100C300010607047014600208B4A0832106820F48B
:100C4000E05008431060704701460020864A083291
:100C5000106820F4604040EAC10010607047F0B5B1
:100C60000021002200240225002602237E4F08379F
:100C70003F6807F00C0121B1042905D0082937D1BC
:100C800005E07E4F076036E07D4F076033E0764F2A
:100C90003F1D3F68C7F38056734F3F1D3F6807F005
:100CA0003F036EB1764FB7FBF3F7DFF8BCC10CF131
:100CB000040CDCF800C0CCF3881C07FB0CF40CE03F
:100CC0006E4FB7FBF3F7DFF8A0C10CF1040CDCF8B2
:100CD00000C0CCF3881C07FB0CF4634F3F1D3F683A
:100CE000C7F301477F1C7D00B4FBF5F7076002E006
:100CF000624F076000BF00BF5B4F08373F6807F0D7
:100D0000F00109095F4F7A5C0768D7404760564F8A
:100D100008373F6807F4E051890A5A4F7A5C476800
:100D2000D7408760504F08373F6807F46041490B50
:100D3000544F7A5C4768D740C760F0BD002100F48B
:100D40004072B2F5407F0AD1474A0832116821F457
:100D5000F8114D4A02401143434A08321160424A99
:100D600070321268C0F30B031A433F4B70331A60A2
:100D7000704741494439086070473F49403908602D
:100D8000704742490860704739B1374A30321268BB
:100D90000243354B30331A6006E0334A3032126872
:100DA0008243314B30331A60704739B12E4A3432A6
:100DB000126802432C4B34331A6006E02A4A34325C
:100DC00012688243284B34331A60704739B1264A7F
:100DD000383212680243244B38331A6006E0224A44
:100DE000383212688243204B38331A60704739B169
:100DF0001D4A4032126802431B4B40331A6006E022
:100E0000194A403212688243174B40331A607047C8
:100E100039B1154A443212680243134B44331A6005
:100E200006E0114A4432126882430F4B44331A6081
:100E3000704739B10C4A1032126802430A4B103322
:100E40001A6006E0084A103212688243064B1033DB
:100E50001A607047E1B1044A143212680243024B2F
:100E600014331A6019E0000000380240FFFFF6FE5C
:100E70001030002400004742800E47420024F40056
:100E800000127A0090000020FFFCFF0F5C01474237
:100E90005B4A126882435A4B1A60704739B1584A0C
:100EA000121D12680243564B1B1D1A6006E0544A7D
:100EB000121D12688243524B1B1D1A60704739B1D4
:100EC0004F4A0C32126802434D4B0C331A6006E055
:100ED0004B4A0C3212688243494B0C331A607047FC
:100EE00039B1474A103212680243454B10331A6039
:100EF00006E0434A103212688243414B10331A60B5
:100F0000704739B13E4A3C32126802433C4B3C3395
:100F10001A6006E03A4A3C3212688243384B3C334E
:100F20001A60704739B1364A403212680243344B76
:100F300040331A6006E0324A403212688243304B36
:100F400040331A60704739B12D4A44321268024367
:100F50002B4B44331A6006E0294A4432126882431C
:100F6000274B44331A60704739B1254A4C32126816
:100F70000243234B4C331A6006E0214A4C3212687C
:100F800082431F4B4C331A60704739B11C4A5032B0
:100F9000126802431A4B50331A6006E0184A503266
:100FA00012688243164B50331A60704739B1144AA5
:100FB000D21F12780243124BDB1F1A7006E0104A50
:100FC000D21F127882430E4BDB1F1A7070470C48F9
:100FD0006030006840F080700949603108607047F7
:100FE00001460020064A083A12680A400AB1012068
:100FF00000E0002070470249891F08707047000018
:101000001438024010B50446F748844208D1012143
:101010008014FFF765FF0021A014FFF761FF16E0C1
:10102000F248844208D101210014FFF748FF002153
:101030002014FFF744FF0AE0ED48844207D1012164
:10104000C013FFF73CFF0021E013FFF738FF10BD8E
:1010500010B50022028802F441520B884C882343C9
:101060008C882343CC8823430C8923434C89234316
:101070008C892343CC8923431A430280838B4FF20C
:10108000FF74234083830B8A038210BD2DE9F04F48
:1010900000250223002401270022002694469046C2
:1010A0009146B0F81CA04FF2400B0AEA0B0AA0F8D8
:1010B0001CA04FF0020AA0F820A0858BD1F808A050
:1010C000BAF1020F01D100BF6CE0B1F804A0BAF18F
:1010D000000F01D1012700E00227DFF818A3DAF89A
:1010E00000A00AF4000ABAF1000F09D0DFF804A347
:1010F000DAF800A02AF4000ADFF8F8B2CBF800A072
:10110000DFF8F0A20AF17C0ADAF800A0CAF3881826
:10111000DFF8E0A20AF17C0ADAF800A0CAF302794B
:10112000DFF8D0A2AAF1040ADAF800A00AF03F0C16
:10113000DFF8C4A2BAFBFCFA0AFB08FABAFBF9F61C
:10114000B1F806A0BAF5007F0ED14FEA162A0AEBD5
:101150008A0A4FEA4A0AD1F808B0BAFBFBFA0AF148
:10116000050A1FFA8AF20FE04FEA471AB6FBFAFAAD
:101170000AEB8A0A4FEA4A0AD1F808B0BAFBFBFA2E
:101180000AF1050A1FFA8AF24FF00A0AB2FBFAF2D4
:1011900002F00104A2EB040ACAF34F034FF6FF7AF0
:1011A0000AEA0424022B01DBFF2B01DD02230024C9
:1011B000B1F806A04AEA040A4AEA030AA0F820A005
:1011C000B1F804A0B1F80CB04AEA0B0AB1F802B0C9
:1011D0004AEA0B0AB1F800B04AEA0B0A4AF4006A7C
:1011E0004AEA05058583BDE8F08F00210180418032
:1011F0008180C180018141818181C181072101827A
:1012000070470021018041808180C180022181607E
:1012100000218181704721B1028842F040020280A2
:1012200004E002884FF6BF731A400280704721B174
:10123000828B42F48062828304E0828B4FF6FF331C
:101240001A408283704702884FF2FF731A4002806F
:1012500002880A4302807047B1F5804F04D10288AA
:1012600042F48042028004E002884BF6FF731A4089
:10127000028070474FF6FF62914204D0028842F428
:101280008072028004E002884FF6FF631A400280F9
:10129000704721B1828842F00402828004E0828893
:1012A0004FF6FB731A408280704721B1828842F06A
:1012B0001002828004E082884FF6EF731A40828029
:1012C000704730B500220023848B4FF240052C403C
:1012D000848302240484828B0C88B4F5007F01D0BF
:1012E0000C8814B94FF4807308E00C88B4F5407F83
:1012F00003D00C88B4F5807F00D100238C888D89C1
:101300002C434D882C431C4344F4006422438283C5
:1013100030BD0146888970478181704721B10288BC
:1013200042F40052028004E002884DF6FF731A4036
:1013300002807047018841F4805101807047024665
:101340000020012901D0108B00E0908A70470146EF
:10135000088A70471AB183880B43838002E0838830
:101360008B438380704730B5002400230C11012586
:10137000A540ABB21AB185881D43858002E08588FF
:101380009D43858030BD0246002013890B400BB180
:10139000012000E000207047CA4302817047F0B589
:1013A0000246002000240023002501F00F0701263B
:1013B000BE40B4B20B1101269E40B3B2968806EA35
:1013C00003051689264016B10DB1012000E000206A
:1013D000F0BD10B5002201F00F040123A3409AB222
:1013E000D343038110BD00000030014000380040AD
:1013F000003C00400838024000127A00032A40F204
:10140000308010F0030C00F0158011F8013BBCF1A6
:10141000020F624498BF11F801CB00F8013B38BFBE
:1014200011F8013BA2F1040298BF00F801CB38BFCC
:1014300000F8013B11F0030300F02880083AC0F0E7
:10144000088051F8043B083A51F804CBA0E8081092
:10145000F5E7121D5CBF51F8043B40F8043BAFF3C5
:101460000080D20724BF11F8013B11F801CB48BF1F
:1014700011F8012B24BF00F8013B00F801CB48BF55
:1014800000F8012B704770477047704710B5203A3D
:10149000C0F00B80B1E81850203AA0E81850B1E82D
:1014A0001850A0E81850BFF4F5AF5FEA027C24BFE3
:1014B000B1E81850A0E8185044BF18C918C0BDE8DA
:1014C00010405FEA827C24BF51F8043B40F8043BA3
:1014D00008BF7047D20728BF31F8023B48BF11F858
:1014E000012B28BF20F8023B48BF00F8012B7047B2
:1014F000754600F02BF8AE4605006946534620F0CD
:101500000700854618B020B5FFF708F9BDE8204070
:101510004FF000064FF000074FF000084FF0000BAF
:1015200021F00701AC46ACE8C009ACE8C009ACE862
:10153000C009ACE8C0098D46704710B50446AFF34A
:1015400000802046BDE81040FEF767BE00487047A7
:10155000A401002001491820ABBEFEE726000200CE
:1015600070474FF04070E1EE100A70478C1500088C
:1015700000000020A0000000C40100082C16000894
:10158000A000002068070000E00100080000000043
:101590000000000000000000010101010101010143
:1015A000010101010202020202020202020202021F
:1015B0000303030303030303030303030000000007
:1015C000000000000000000000000000000000001B
:1015D000000000000000000000000000000000000B
:1015E00000000000000000000000000000000000FB
:1015F00000000000000000000000000000000000EB
:1016000000000000000000000044950800000000F9
:1016100000000000010203040607080900000000A2
:0C1620000102030401020304060708098C
:040000050800018965
:00000001FF
